{
  "contractName": "Master",
  "abi": [
    {
      "constant": true,
      "inputs": [],
      "name": "owner",
      "outputs": [
        {
          "name": "",
          "type": "address"
        }
      ],
      "payable": false,
      "stateMutability": "view",
      "type": "function"
    },
    {
      "inputs": [],
      "payable": false,
      "stateMutability": "nonpayable",
      "type": "constructor"
    },
    {
      "anonymous": false,
      "inputs": [
        {
          "indexed": false,
          "name": "_businessWalletAddress",
          "type": "address"
        },
        {
          "indexed": false,
          "name": "_businessName",
          "type": "string"
        },
        {
          "indexed": false,
          "name": "_contractAddress",
          "type": "address"
        }
      ],
      "name": "businessAdded",
      "type": "event"
    },
    {
      "constant": false,
      "inputs": [
        {
          "name": "_businessWalletAddress",
          "type": "address"
        },
        {
          "name": "_businessName",
          "type": "string"
        }
      ],
      "name": "addBusiness",
      "outputs": [],
      "payable": false,
      "stateMutability": "nonpayable",
      "type": "function"
    },
    {
      "constant": true,
      "inputs": [
        {
          "name": "_businessWalletAddress",
          "type": "address"
        }
      ],
      "name": "getBusinessDetails",
      "outputs": [
        {
          "name": "businessContractAddress",
          "type": "address"
        },
        {
          "name": "businessName",
          "type": "string"
        },
        {
          "name": "businessActive",
          "type": "bool"
        }
      ],
      "payable": false,
      "stateMutability": "view",
      "type": "function"
    },
    {
      "constant": true,
      "inputs": [],
      "name": "getAllBusinesses",
      "outputs": [
        {
          "name": "",
          "type": "address[]"
        }
      ],
      "payable": false,
      "stateMutability": "view",
      "type": "function"
    },
    {
      "constant": false,
      "inputs": [
        {
          "name": "_businessWalletAddress",
          "type": "address"
        },
        {
          "name": "_businessActive",
          "type": "bool"
        }
      ],
      "name": "setActiveFlag",
      "outputs": [],
      "payable": false,
      "stateMutability": "nonpayable",
      "type": "function"
    }
  ],
  "bytecode": "0x608060405234801561001057600080fd5b5033600260006101000a81548173ffffffffffffffffffffffffffffffffffffffff021916908373ffffffffffffffffffffffffffffffffffffffff160217905550612478806100616000396000f30060806040526004361061006d576000357c0100000000000000000000000000000000000000000000000000000000900463ffffffff16806310f516c7146100725780638da5cb5b146100fb57806398c4618314610152578063bc9e2b6d146101be578063e83dfd07146102b8575b600080fd5b34801561007e57600080fd5b506100f9600480360381019080803573ffffffffffffffffffffffffffffffffffffffff169060200190929190803590602001908201803590602001908080601f0160208091040260200160405190810160405280939291908181526020018383808284378201915050505050509192919290505050610307565b005b34801561010757600080fd5b50610110610754565b604051808273ffffffffffffffffffffffffffffffffffffffff1673ffffffffffffffffffffffffffffffffffffffff16815260200191505060405180910390f35b34801561015e57600080fd5b5061016761077a565b6040518080602001828103825283818151815260200191508051906020019060200280838360005b838110156101aa57808201518184015260208101905061018f565b505050509050019250505060405180910390f35b3480156101ca57600080fd5b506101ff600480360381019080803573ffffffffffffffffffffffffffffffffffffffff169060200190929190505050610808565b604051808473ffffffffffffffffffffffffffffffffffffffff1673ffffffffffffffffffffffffffffffffffffffff1681526020018060200183151515158152602001828103825284818151815260200191508051906020019080838360005b8381101561027b578082015181840152602081019050610260565b50505050905090810190601f1680156102a85780820380516001836020036101000a031916815260200191505b5094505050505060405180910390f35b3480156102c457600080fd5b50610305600480360381019080803573ffffffffffffffffffffffffffffffffffffffff1690602001909291908035151590602001909291905050506109a9565b005b600080600260009054906101000a900473ffffffffffffffffffffffffffffffffffffffff1673ffffffffffffffffffffffffffffffffffffffff163373ffffffffffffffffffffffffffffffffffffffff161415156103f5576040517f08c379a00000000000000000000000000000000000000000000000000000000081526004018080602001828103825260278152602001807f4f6e6c792043726564697452656769737465722063616e20616464206275736981526020017f6e65737365732e0000000000000000000000000000000000000000000000000081525060400191505060405180910390fd5b600115156000808673ffffffffffffffffffffffffffffffffffffffff1673ffffffffffffffffffffffffffffffffffffffff16815260200190815260200160002060020160009054906101000a900460ff161515141515156104c0576040517f08c379a000000000000000000000000000000000000000000000000000000000815260040180806020018281038252601f8152602001807f427573696e6573732077616c6c657420616c7265616479206578697374732e0081525060200191505060405180910390fd5b6104c8610a06565b604051809103906000f0801580156104e4573d6000803e3d6000fd5b5091508190506060604051908101604052808273ffffffffffffffffffffffffffffffffffffffff168152602001848152602001600115158152506000808673ffffffffffffffffffffffffffffffffffffffff1673ffffffffffffffffffffffffffffffffffffffff16815260200190815260200160002060008201518160000160006101000a81548173ffffffffffffffffffffffffffffffffffffffff021916908373ffffffffffffffffffffffffffffffffffffffff16021790555060208201518160010190805190602001906105c0929190610a16565b5060408201518160020160006101000a81548160ff02191690831515021790555090505060018490806001815401808255809150509060018203906000526020600020016000909192909190916101000a81548173ffffffffffffffffffffffffffffffffffffffff021916908373ffffffffffffffffffffffffffffffffffffffff160217905550507fcc045603a24bcdfdf0602c541b79a5d4f731eb252ba73686d4a022590cb9790b848483604051808473ffffffffffffffffffffffffffffffffffffffff1673ffffffffffffffffffffffffffffffffffffffff168152602001806020018373ffffffffffffffffffffffffffffffffffffffff1673ffffffffffffffffffffffffffffffffffffffff168152602001828103825284818151815260200191508051906020019080838360005b838110156107125780820151818401526020810190506106f7565b50505050905090810190601f16801561073f5780820380516001836020036101000a031916815260200191505b5094505050505060405180910390a150505050565b600260009054906101000a900473ffffffffffffffffffffffffffffffffffffffff1681565b606060018054806020026020016040519081016040528092919081815260200182805480156107fe57602002820191906000526020600020905b8160009054906101000a900473ffffffffffffffffffffffffffffffffffffffff1673ffffffffffffffffffffffffffffffffffffffff16815260200190600101908083116107b4575b5050505050905090565b6000606060008060008573ffffffffffffffffffffffffffffffffffffffff1673ffffffffffffffffffffffffffffffffffffffff16815260200190815260200160002060000160009054906101000a900473ffffffffffffffffffffffffffffffffffffffff166000808673ffffffffffffffffffffffffffffffffffffffff1673ffffffffffffffffffffffffffffffffffffffff1681526020019081526020016000206001016000808773ffffffffffffffffffffffffffffffffffffffff1673ffffffffffffffffffffffffffffffffffffffff16815260200190815260200160002060020160009054906101000a900460ff16818054600181600116156101000203166002900480601f0160208091040260200160405190810160405280929190818152602001828054600181600116156101000203166002900480156109955780601f1061096a57610100808354040283529160200191610995565b820191906000526020600020905b81548152906001019060200180831161097857829003601f168201915b505050505091509250925092509193909250565b806000808473ffffffffffffffffffffffffffffffffffffffff1673ffffffffffffffffffffffffffffffffffffffff16815260200190815260200160002060020160006101000a81548160ff0219169083151502179055505050565b60405161199180610abc83390190565b828054600181600116156101000203166002900490600052602060002090601f016020900481019282601f10610a5757805160ff1916838001178555610a85565b82800160010185558215610a85579182015b82811115610a84578251825591602001919060010190610a69565b5b509050610a929190610a96565b5090565b610ab891905b80821115610ab4576000816000905550600101610a9c565b5090565b90560060806040526000600360006101000a81548160ff02191690831515021790555034801561002b57600080fd5b5033600160006101000a81548173ffffffffffffffffffffffffffffffffffffffff021916908373ffffffffffffffffffffffffffffffffffffffff1602179055506119158061007c6000396000f3006080604052600436106100af576000357c0100000000000000000000000000000000000000000000000000000000900463ffffffff16806302d05d3f146100b45780630c60f83d1461010b57806327ad894e146101d95780632d196d4b146103125780635951a7f6146103eb5780637da67ba81461047b5780638d747a3d146104e75780638da5cb5b14610570578063adb4d990146105c7578063ae1876b5146105f6578063b92b26921461064d575b600080fd5b3480156100c057600080fd5b506100c9610716565b604051808273ffffffffffffffffffffffffffffffffffffffff1673ffffffffffffffffffffffffffffffffffffffff16815260200191505060405180910390f35b34801561011757600080fd5b5061014c600480360381019080803573ffffffffffffffffffffffffffffffffffffffff16906020019092919050505061073c565b604051808060200184815260200183151515158152602001828103825285818151815260200191508051906020019080838360005b8381101561019c578082015181840152602081019050610181565b50505050905090810190601f1680156101c95780820380516001836020036101000a031916815260200191505b5094505050505060405180910390f35b3480156101e557600080fd5b50610224600480360381019080803573ffffffffffffffffffffffffffffffffffffffff169060200190929190803590602001909291905050506108bf565b604051808060200184815260200180602001838103835286818151815260200191508051906020019080838360005b8381101561026e578082015181840152602081019050610253565b50505050905090810190601f16801561029b5780820380516001836020036101000a031916815260200191505b50838103825284818151815260200191508051906020019080838360005b838110156102d45780820151818401526020810190506102b9565b50505050905090810190601f1680156103015780820380516001836020036101000a031916815260200191505b509550505050505060405180910390f35b34801561031e57600080fd5b506103e9600480360381019080803573ffffffffffffffffffffffffffffffffffffffff16906020019092919080359060200190929190803590602001908201803590602001908080601f0160208091040260200160405190810160405280939291908181526020018383808284378201915050505050509192919290803590602001908201803590602001908080601f0160208091040260200160405190810160405280939291908181526020018383808284378201915050505050509192919290505050610aa6565b005b3480156103f757600080fd5b50610400610dfc565b6040518080602001828103825283818151815260200191508051906020019080838360005b83811015610440578082015181840152602081019050610425565b50505050905090810190601f16801561046d5780820380516001836020036101000a031916815260200191505b509250505060405180910390f35b34801561048757600080fd5b50610490610e9a565b6040518080602001828103825283818151815260200191508051906020019060200280838360005b838110156104d35780820151818401526020810190506104b8565b505050509050019250505060405180910390f35b3480156104f357600080fd5b5061056e600480360381019080803573ffffffffffffffffffffffffffffffffffffffff169060200190929190803590602001908201803590602001908080601f0160208091040260200160405190810160405280939291908181526020018383808284378201915050505050509192919290505050610f28565b005b34801561057c57600080fd5b50610585611136565b604051808273ffffffffffffffffffffffffffffffffffffffff1673ffffffffffffffffffffffffffffffffffffffff16815260200191505060405180910390f35b3480156105d357600080fd5b506105dc61115b565b604051808215151515815260200191505060405180910390f35b34801561060257600080fd5b50610637600480360381019080803573ffffffffffffffffffffffffffffffffffffffff16906020019092919050505061116e565b6040518082815260200191505060405180910390f35b34801561065957600080fd5b50610714600480360381019080803573ffffffffffffffffffffffffffffffffffffffff169060200190929190803590602001908201803590602001908080601f0160208091040260200160405190810160405280939291908181526020018383808284378201915050505050509192919290803573ffffffffffffffffffffffffffffffffffffffff169060200190929190803573ffffffffffffffffffffffffffffffffffffffff1690602001909291905050506111ba565b005b600160009054906101000a900473ffffffffffffffffffffffffffffffffffffffff1681565b6060600080600560008573ffffffffffffffffffffffffffffffffffffffff1673ffffffffffffffffffffffffffffffffffffffff168152602001908152602001600020600001600560008673ffffffffffffffffffffffffffffffffffffffff1673ffffffffffffffffffffffffffffffffffffffff16815260200190815260200160002060010154600560008773ffffffffffffffffffffffffffffffffffffffff1673ffffffffffffffffffffffffffffffffffffffff16815260200190815260200160002060020160009054906101000a900460ff16828054600181600116156101000203166002900480601f0160208091040260200160405190810160405280929190818152602001828054600181600116156101000203166002900480156108ab5780601f10610880576101008083540402835291602001916108ab565b820191906000526020600020905b81548152906001019060200180831161088e57829003601f168201915b505050505092509250925092509193909250565b6060600060606108cd6117a2565b600660008773ffffffffffffffffffffffffffffffffffffffff1673ffffffffffffffffffffffffffffffffffffffff1681526020019081526020016000208581548110151561091957fe5b906000526020600020906003020160606040519081016040529081600082018054600181600116156101000203166002900480601f0160208091040260200160405190810160405280929190818152602001828054600181600116156101000203166002900480156109cc5780601f106109a1576101008083540402835291602001916109cc565b820191906000526020600020905b8154815290600101906020018083116109af57829003601f168201915b5050505050815260200160018201548152602001600282018054600181600116156101000203166002900480601f016020809104026020016040519081016040528092919081815260200182805460018160011615610100020316600290048015610a785780601f10610a4d57610100808354040283529160200191610a78565b820191906000526020600020905b815481529060010190602001808311610a5b57829003601f168201915b5050505050815250509050806000015181602001518260400151829250809050935093509350509250925092565b6000610ab06117a2565b3373ffffffffffffffffffffffffffffffffffffffff166000809054906101000a900473ffffffffffffffffffffffffffffffffffffffff1673ffffffffffffffffffffffffffffffffffffffff16141515610b9a576040517f08c379a000000000000000000000000000000000000000000000000000000000815260040180806020018281038252602d8152602001807f4f6e6c792074686520627573696e657373206f776e65722063616e2070726f6381526020017f65737320646f63756d656e74730000000000000000000000000000000000000081525060400191505060405180910390fd5b60011515600560008873ffffffffffffffffffffffffffffffffffffffff1673ffffffffffffffffffffffffffffffffffffffff16815260200190815260200160002060020160009054906101000a900460ff161515141515610c65576040517f08c379a000000000000000000000000000000000000000000000000000000000815260040180806020018281038252601c8152602001807f5468697320637573746f6d6572206d757374206265206163746976650000000081525060200191505060405180910390fd5b600560008773ffffffffffffffffffffffffffffffffffffffff1673ffffffffffffffffffffffffffffffffffffffff1681526020019081526020016000209150848260010154018260010181905550606060405190810160405280858152602001868152602001848152509050600660008773ffffffffffffffffffffffffffffffffffffffff1673ffffffffffffffffffffffffffffffffffffffff16815260200190815260200160002081908060018154018082558091505090600182039060005260206000209060030201600090919290919091506000820151816000019080519060200190610d5a9291906117c4565b50602082015181600101556040820151816002019080519060200190610d819291906117c4565b505050507fd1ad0dbf6b79de5f3081004a525b401604c44f9fc78d33319e4bd8ee25594941868360010154604051808373ffffffffffffffffffffffffffffffffffffffff1673ffffffffffffffffffffffffffffffffffffffff1681526020018281526020019250505060405180910390a1505050505050565b60028054600181600116156101000203166002900480601f016020809104026020016040519081016040528092919081815260200182805460018160011615610100020316600290048015610e925780601f10610e6757610100808354040283529160200191610e92565b820191906000526020600020905b815481529060010190602001808311610e7557829003601f168201915b505050505081565b60606004805480602002602001604051908101604052809291908181526020018280548015610f1e57602002820191906000526020600020905b8160009054906101000a900473ffffffffffffffffffffffffffffffffffffffff1673ffffffffffffffffffffffffffffffffffffffff1681526020019060010190808311610ed4575b5050505050905090565b60001515600360009054906101000a900460ff161515141515610fd9576040517f08c379a000000000000000000000000000000000000000000000000000000000815260040180806020018281038252602c8152602001807f436f6e74726163742068617320616c7265616479206265656e2061737369676e81526020017f6564206f776e657273686970000000000000000000000000000000000000000081525060400191505060405180910390fd5b816000806101000a81548173ffffffffffffffffffffffffffffffffffffffff021916908373ffffffffffffffffffffffffffffffffffffffff160217905550806002908051906020019061102f929190611844565b506001600360006101000a81548160ff0219169083151502179055508173ffffffffffffffffffffffffffffffffffffffff167f7985ce356670cba2553cefb0e994499f235dd9c1db22475dee06b24ff8196d50823060405180806020018373ffffffffffffffffffffffffffffffffffffffff1673ffffffffffffffffffffffffffffffffffffffff168152602001828103825284818151815260200191508051906020019080838360005b838110156110f75780820151818401526020810190506110dc565b50505050905090810190601f1680156111245780820380516001836020036101000a031916815260200191505b50935050505060405180910390a25050565b6000809054906101000a900473ffffffffffffffffffffffffffffffffffffffff1681565b600360009054906101000a900460ff1681565b6000600660008373ffffffffffffffffffffffffffffffffffffffff1673ffffffffffffffffffffffffffffffffffffffff168152602001908152602001600020805490509050919050565b60003373ffffffffffffffffffffffffffffffffffffffff166000809054906101000a900473ffffffffffffffffffffffffffffffffffffffff1673ffffffffffffffffffffffffffffffffffffffff161415156112a6576040517f08c379a00000000000000000000000000000000000000000000000000000000081526004018080602001828103825260298152602001807f4f6e6c792074686520627573696e657373206f776e65722063616e206164642081526020017f637573746f6d657273000000000000000000000000000000000000000000000081525060400191505060405180910390fd5b60011515600560008773ffffffffffffffffffffffffffffffffffffffff1673ffffffffffffffffffffffffffffffffffffffff16815260200190815260200160002060020160009054906101000a900460ff16151514151515611398576040517f08c379a000000000000000000000000000000000000000000000000000000000815260040180806020018281038252603a8152602001807f5468697320637573746f6d657220697320616c7265616479206163746976652e81526020017f20506c656173652075736520616d656e642066756e6374696f6e00000000000081525060400191505060405180910390fd5b6000600560008773ffffffffffffffffffffffffffffffffffffffff1673ffffffffffffffffffffffffffffffffffffffff1681526020019081526020016000206001015414151561149e576040517f08c379a000000000000000000000000000000000000000000000000000000000815260040180806020018281038252604f8152602001807f5468697320637573746f6d657220697320696e6163746976652062757420686181526020017f732061206e6f6e2d7a65726f2062616c616e63652e20506c656173652075736581526020017f20616d656e642066756e6374696f6e000000000000000000000000000000000081525060600191505060405180910390fd5b8290508073ffffffffffffffffffffffffffffffffffffffff1663f6cf948186336040518363ffffffff167c0100000000000000000000000000000000000000000000000000000000028152600401808373ffffffffffffffffffffffffffffffffffffffff1673ffffffffffffffffffffffffffffffffffffffff1681526020018273ffffffffffffffffffffffffffffffffffffffff1673ffffffffffffffffffffffffffffffffffffffff16815260200192505050600060405180830381600087803b15801561157057600080fd5b505af1158015611584573d6000803e3d6000fd5b505050506060604051908101604052808581526020016000815260200160011515815250600560008773ffffffffffffffffffffffffffffffffffffffff1673ffffffffffffffffffffffffffffffffffffffff16815260200190815260200160002060008201518160000190805190602001906116039291906117c4565b506020820151816001015560408201518160020160006101000a81548160ff02191690831515021790555090505060048590806001815401808255809150509060018203906000526020600020016000909192909190916101000a81548173ffffffffffffffffffffffffffffffffffffffff021916908373ffffffffffffffffffffffffffffffffffffffff160217905550507f16d6e18cc5106f5fa9d56783d1d442b3f4c882be093c7364b15763d7b2fe208e84863360405180806020018473ffffffffffffffffffffffffffffffffffffffff1673ffffffffffffffffffffffffffffffffffffffff1681526020018373ffffffffffffffffffffffffffffffffffffffff1673ffffffffffffffffffffffffffffffffffffffff168152602001828103825285818151815260200191508051906020019080838360005b8381101561175f578082015181840152602081019050611744565b50505050905090810190601f16801561178c5780820380516001836020036101000a031916815260200191505b5094505050505060405180910390a15050505050565b6060604051908101604052806060815260200160008152602001606081525090565b828054600181600116156101000203166002900490600052602060002090601f016020900481019282601f1061180557805160ff1916838001178555611833565b82800160010185558215611833579182015b82811115611832578251825591602001919060010190611817565b5b50905061184091906118c4565b5090565b828054600181600116156101000203166002900490600052602060002090601f016020900481019282601f1061188557805160ff19168380011785556118b3565b828001600101855582156118b3579182015b828111156118b2578251825591602001919060010190611897565b5b5090506118c091906118c4565b5090565b6118e691905b808211156118e25760008160009055506001016118ca565b5090565b905600a165627a7a723058200d718c6ddf146a41bc0a40d97a332e4c18289cd29e7bfcd22d2c33a117b1068f0029a165627a7a72305820f8bea1d3864b44c1d1adab58db9232424e938227be5f16f5a3be50ecfc440bbd0029",
  "source": "pragma solidity ^0.4.23;\n\nimport \"./Business.sol\";\n\ncontract Master {\n\n    /*\n        DESCRIPTION:\n        The Master contract will be owned by CreditRegister. This is a contract factory which\n        allows us to deploy new instances of the Business contract when reputable businesses\n        want to be added onto the platform. These businesses will be able to record payment\n        histories, so they will need to be vetted first.\n    */\n    \n    struct BusinessDetails{\n        address businessContractAddress;\n        string businessName;\n        bool businessActive;\n    }\n\n    mapping(address => BusinessDetails) businessWalletAddressToDetails;\n\n    address[] allBusinesses;          //An array of the address of all businesses loaded on the platform. \n                                        // From here you can use the mappings to get their name and contract number\n\n    event businessAdded(address _businessWalletAddress, string _businessName, address _contractAddress);\n\n    address public owner;\n\n    constructor() public{\n        owner = msg.sender;\n    }\n\n\n    function addBusiness(address _businessWalletAddress, string _businessName) public {\n        require(msg.sender == owner, \"Only CreditRegister can add businesses.\");\n        //require(businessExists[_businessName] != true, \"Business name already exists.\");\n        //require(businessAddressExists[_businessWalletAddress] != true, \"Business wallet already exists.\");\n        require(businessWalletAddressToDetails[_businessWalletAddress].businessActive != true, \"Business wallet already exists.\");\n\n        Business newBusiness = new Business();\n        address businessContractAddress = address(newBusiness);\n        businessWalletAddressToDetails[_businessWalletAddress] = BusinessDetails(businessContractAddress, _businessName,true);\n        allBusinesses.push(_businessWalletAddress);\n        emit businessAdded(_businessWalletAddress, _businessName, businessContractAddress);\n    }\n\n\n    function getBusinessDetails(address _businessWalletAddress) public view returns (\n        address businessContractAddress,\n        string businessName,\n        bool businessActive\n    ){\n        return (businessWalletAddressToDetails[_businessWalletAddress].businessContractAddress,\n            businessWalletAddressToDetails[_businessWalletAddress].businessName,\n            businessWalletAddressToDetails[_businessWalletAddress].businessActive);\n    }\n\n\n    function getAllBusinesses() public view returns(address[]){\n        return allBusinesses;\n    }\n\n    function setActiveFlag(address _businessWalletAddress, bool _businessActive) public {\n        businessWalletAddressToDetails[_businessWalletAddress].businessActive = _businessActive;\n    }\n}",
  "sourcePath": "/home/bryony/Dropbox/Dissertation/Thesis/Code/contracts/Master.sol",
  "compiler": {
    "name": "solc",
    "version": "0.4.24+commit.e67f0147.Emscripten.clang"
  },
  "schemaVersion": "2.0.1",
  "updatedAt": "2018-12-18T09:34:27.543Z"
}