{
  "contractName": "Master",
  "abi": [
    {
      "constant": true,
      "inputs": [
        {
          "name": "",
          "type": "uint256"
        }
      ],
      "name": "allBusinesses",
      "outputs": [
        {
          "name": "",
          "type": "string"
        }
      ],
      "payable": false,
      "stateMutability": "view",
      "type": "function"
    },
    {
      "inputs": [],
      "payable": false,
      "stateMutability": "nonpayable",
      "type": "constructor"
    },
    {
      "anonymous": false,
      "inputs": [
        {
          "indexed": false,
          "name": "_businessName",
          "type": "string"
        },
        {
          "indexed": false,
          "name": "_contractAddress",
          "type": "address"
        }
      ],
      "name": "businessAdded",
      "type": "event"
    },
    {
      "constant": false,
      "inputs": [
        {
          "name": "_businessAddress",
          "type": "address"
        },
        {
          "name": "_businessName",
          "type": "string"
        }
      ],
      "name": "addBusiness",
      "outputs": [],
      "payable": false,
      "stateMutability": "nonpayable",
      "type": "function"
    },
    {
      "constant": true,
      "inputs": [
        {
          "name": "_businessName",
          "type": "string"
        }
      ],
      "name": "checkBusinessExists",
      "outputs": [
        {
          "name": "",
          "type": "bool"
        }
      ],
      "payable": false,
      "stateMutability": "view",
      "type": "function"
    },
    {
      "constant": true,
      "inputs": [
        {
          "name": "index",
          "type": "uint256"
        }
      ],
      "name": "getAllBusinesses",
      "outputs": [
        {
          "name": "",
          "type": "string"
        }
      ],
      "payable": false,
      "stateMutability": "view",
      "type": "function"
    },
    {
      "constant": true,
      "inputs": [
        {
          "name": "_businessName",
          "type": "string"
        }
      ],
      "name": "checkContractAddress",
      "outputs": [
        {
          "name": "",
          "type": "address"
        }
      ],
      "payable": false,
      "stateMutability": "view",
      "type": "function"
    }
  ],
  "bytecode": "0x608060405234801561001057600080fd5b5033600460006101000a81548173ffffffffffffffffffffffffffffffffffffffff021916908373ffffffffffffffffffffffffffffffffffffffff160217905550611098806100616000396000f30060806040526004361061006d576000357c0100000000000000000000000000000000000000000000000000000000900463ffffffff16806310f516c714610072578063787326f5146100fb578063b5b63388146101a1578063b87de8c11461024a578063eedc2d85146102cb575b600080fd5b34801561007e57600080fd5b506100f9600480360381019080803573ffffffffffffffffffffffffffffffffffffffff169060200190929190803590602001908201803590602001908080601f0160208091040260200160405190810160405280939291908181526020018383808284378201915050505050509192919290505050610371565b005b34801561010757600080fd5b506101266004803603810190808035906020019092919050505061083f565b6040518080602001828103825283818151815260200191508051906020019080838360005b8381101561016657808201518184015260208101905061014b565b50505050905090810190601f1680156101935780820380516001836020036101000a031916815260200191505b509250505060405180910390f35b3480156101ad57600080fd5b50610208600480360381019080803590602001908201803590602001908080601f01602080910402602001604051908101604052809392919081815260200183838082843782019150505050505091929192905050506108fa565b604051808273ffffffffffffffffffffffffffffffffffffffff1673ffffffffffffffffffffffffffffffffffffffff16815260200191505060405180910390f35b34801561025657600080fd5b506102b1600480360381019080803590602001908201803590602001908080601f01602080910402602001604051908101604052809392919081815260200183838082843782019150505050505091929192905050506109ee565b604051808215151515815260200191505060405180910390f35b3480156102d757600080fd5b506102f660048036038101908080359060200190929190505050610a70565b6040518080602001828103825283818151815260200191508051906020019080838360005b8381101561033657808201518184015260208101905061031b565b50505050905090810190601f1680156103635780820380516001836020036101000a031916815260200191505b509250505060405180910390f35b600080600460009054906101000a900473ffffffffffffffffffffffffffffffffffffffff1673ffffffffffffffffffffffffffffffffffffffff163373ffffffffffffffffffffffffffffffffffffffff1614151561045f576040517f08c379a000000000000000000000000000000000000000000000000000000000815260040180806020018281038252602f8152602001807f4f6e6c79206f776e6572202869652e2053415265676973747279292063616e2081526020017f61646420627573696e65737365732e000000000000000000000000000000000081525060400191505060405180910390fd5b600115156003846040518082805190602001908083835b60208310151561049b5780518252602082019150602081019050602083039250610476565b6001836020036101000a038019825116818451168082178552505050505050905001915050908152602001604051809103902060009054906101000a900460ff16151514151515610554576040517f08c379a00000000000000000000000000000000000000000000000000000000081526004018080602001828103825260188152602001807f427573696e65737320616c7265616479206578697374732e000000000000000081525060200191505060405180910390fd5b61055c610b2b565b604051809103906000f080158015610578573d6000803e3d6000fd5b50915081600160008673ffffffffffffffffffffffffffffffffffffffff1673ffffffffffffffffffffffffffffffffffffffff16815260200190815260200160002060006101000a81548173ffffffffffffffffffffffffffffffffffffffff021916908373ffffffffffffffffffffffffffffffffffffffff1602179055508190506000839080600181540180825580915050906001820390600052602060002001600090919290919091509080519060200190610639929190610b3b565b505060016003846040518082805190602001908083835b6020831015156106755780518252602082019150602081019050602083039250610650565b6001836020036101000a038019825116818451168082178552505050505050905001915050908152602001604051809103902060006101000a81548160ff021916908315150217905550836002846040518082805190602001908083835b6020831015156106f857805182526020820191506020810190506020830392506106d3565b6001836020036101000a038019825116818451168082178552505050505050905001915050908152602001604051809103902060006101000a81548173ffffffffffffffffffffffffffffffffffffffff021916908373ffffffffffffffffffffffffffffffffffffffff1602179055507fd082639ff026acfc27e151deaaafc5f7981139d6995132a308064e445794f6fb838260405180806020018373ffffffffffffffffffffffffffffffffffffffff1673ffffffffffffffffffffffffffffffffffffffff168152602001828103825284818151815260200191508051906020019080838360005b838110156107fe5780820151818401526020810190506107e3565b50505050905090810190601f16801561082b5780820380516001836020036101000a031916815260200191505b50935050505060405180910390a150505050565b606060008281548110151561085057fe5b906000526020600020018054600181600116156101000203166002900480601f0160208091040260200160405190810160405280929190818152602001828054600181600116156101000203166002900480156108ee5780601f106108c3576101008083540402835291602001916108ee565b820191906000526020600020905b8154815290600101906020018083116108d157829003601f168201915b50505050509050919050565b6000600160006002846040518082805190602001908083835b6020831015156109385780518252602082019150602081019050602083039250610913565b6001836020036101000a038019825116818451168082178552505050505050905001915050908152602001604051809103902060009054906101000a900473ffffffffffffffffffffffffffffffffffffffff1673ffffffffffffffffffffffffffffffffffffffff1673ffffffffffffffffffffffffffffffffffffffff16815260200190815260200160002060009054906101000a900473ffffffffffffffffffffffffffffffffffffffff169050919050565b60006003826040518082805190602001908083835b602083101515610a285780518252602082019150602081019050602083039250610a03565b6001836020036101000a038019825116818451168082178552505050505050905001915050908152602001604051809103902060009054906101000a900460ff169050919050565b600081815481101515610a7f57fe5b906000526020600020016000915090508054600181600116156101000203166002900480601f016020809104026020016040519081016040528092919081815260200182805460018160011615610100020316600290048015610b235780601f10610af857610100808354040283529160200191610b23565b820191906000526020600020905b815481529060010190602001808311610b0657829003601f168201915b505050505081565b60405161048c80610be183390190565b828054600181600116156101000203166002900490600052602060002090601f016020900481019282601f10610b7c57805160ff1916838001178555610baa565b82800160010185558215610baa579182015b82811115610ba9578251825591602001919060010190610b8e565b5b509050610bb79190610bbb565b5090565b610bdd91905b80821115610bd9576000816000905550600101610bc1565b5090565b90560060806040526000600360006101000a81548160ff02191690831515021790555034801561002b57600080fd5b5033600160006101000a81548173ffffffffffffffffffffffffffffffffffffffff021916908373ffffffffffffffffffffffffffffffffffffffff1602179055506104108061007c6000396000f300608060405260043610610041576000357c0100000000000000000000000000000000000000000000000000000000900463ffffffff168063153e7cda14610046575b600080fd5b34801561005257600080fd5b506100ed600480360381019080803573ffffffffffffffffffffffffffffffffffffffff169060200190929190803590602001908201803590602001908080601f0160208091040260200160405190810160405280939291908181526020018383808284378201915050505050509192919290803573ffffffffffffffffffffffffffffffffffffffff1690602001909291905050506100ef565b005b60001515600360009054906101000a900460ff1615151415156101a0576040517f08c379a000000000000000000000000000000000000000000000000000000000815260040180806020018281038252602c8152602001807f436f6e74726163742068617320616c7265616479206265656e2061737369676e81526020017f6564206f776e657273686970000000000000000000000000000000000000000081525060400191505060405180910390fd5b826000806101000a81548173ffffffffffffffffffffffffffffffffffffffff021916908373ffffffffffffffffffffffffffffffffffffffff16021790555033600160006101000a81548173ffffffffffffffffffffffffffffffffffffffff021916908373ffffffffffffffffffffffffffffffffffffffff160217905550816002908051906020019061023792919061033f565b506001600360006101000a81548160ff0219169083151502179055508273ffffffffffffffffffffffffffffffffffffffff167f26f0049d49ff96c8fa8d2aa803ac22273383bd2bb7591a264ceae84664520134838360405180806020018373ffffffffffffffffffffffffffffffffffffffff1673ffffffffffffffffffffffffffffffffffffffff168152602001828103825284818151815260200191508051906020019080838360005b838110156102ff5780820151818401526020810190506102e4565b50505050905090810190601f16801561032c5780820380516001836020036101000a031916815260200191505b50935050505060405180910390a2505050565b828054600181600116156101000203166002900490600052602060002090601f016020900481019282601f1061038057805160ff19168380011785556103ae565b828001600101855582156103ae579182015b828111156103ad578251825591602001919060010190610392565b5b5090506103bb91906103bf565b5090565b6103e191905b808211156103dd5760008160009055506001016103c5565b5090565b905600a165627a7a723058205beface43a7a1b9a4fd6ce835e89b1ee3f5e101d47bdbdc0d86ba0acfae371140029a165627a7a72305820310ae204bc62b86d21d9fca0eaf74e8ac9c45d11c3fb5a60e88d31739886bdf80029",
  "source": "pragma solidity ^0.4.23;\n\nimport \"./Business.sol\";\n\ncontract Master {\n\n    /*\n        DESCRIPTION:\n        The Master contract will be owned by SARegistry. This is a contract factory which\n        allows us to deploy new instances of the Business contract when reputable businesses\n        want to be added onto the platform. These businesses will be able to record payment\n        histories, so they will need to be vetted first.\n    */\n    \n    string[] public allBusinesses;          //An array of the names of all businesses loaded on the platform\n\n    mapping(address => address) businessAddressToContract;      //Maps the business wallet to the deployed contract\n    mapping(string => address) businessNameToAddress;          //Maps the business name to its wallet address\n    mapping(string => bool) businessExists;                     //Maps the business name to boolean, allowing user to check if business exists\n\n    event businessAdded(string _businessName, address _contractAddress);\n\n    address owner;\n\n    constructor() public{\n        owner = msg.sender;\n    }\n\n    function addBusiness(address _businessAddress, string _businessName) public{\n        require(msg.sender == owner, \"Only owner (ie. SARegistry) can add businesses.\");\n        require(businessExists[_businessName] != true, \"Business already exists.\");\n\n        Business newBusiness =  new Business();\n        businessAddressToContract[_businessAddress] = newBusiness;\n        address contractAddress = address(newBusiness);\n        //businessAddressToContract[_businessAddress] = new Business();\n        \n        allBusinesses.push(_businessName);\n        businessExists[_businessName] = true;\n        businessNameToAddress[_businessName] = _businessAddress;\n        emit businessAdded(_businessName, contractAddress);\n    }\n\n    function checkBusinessExists(string _businessName) public view returns(bool){\n        return businessExists[_businessName];\n    }    \n\n    function getAllBusinesses(uint index) public view returns(string){\n        return allBusinesses[index];\n    } \n\n    function checkContractAddress(string _businessName) public view returns(address){\n        return businessAddressToContract[businessNameToAddress[_businessName]];\n    }   \n}",
  "sourcePath": "/home/bryony/Dropbox/Dissertation/Thesis/Code2/contracts/Master.sol",
  "compiler": {
    "name": "solc",
    "version": "0.4.24+commit.e67f0147.Emscripten.clang"
  },
  "schemaVersion": "2.0.1",
  "updatedAt": "2018-11-29T06:40:36.388Z"
}