{
  "contractName": "Master",
  "abi": [
    {
      "constant": true,
      "inputs": [],
      "name": "owner",
      "outputs": [
        {
          "name": "",
          "type": "address"
        }
      ],
      "payable": false,
      "stateMutability": "view",
      "type": "function"
    },
    {
      "inputs": [],
      "payable": false,
      "stateMutability": "nonpayable",
      "type": "constructor"
    },
    {
      "anonymous": false,
      "inputs": [
        {
          "indexed": false,
          "name": "_businessAddress",
          "type": "address"
        },
        {
          "indexed": false,
          "name": "_businessName",
          "type": "string"
        },
        {
          "indexed": false,
          "name": "_contractAddress",
          "type": "address"
        }
      ],
      "name": "businessAdded",
      "type": "event"
    },
    {
      "constant": false,
      "inputs": [
        {
          "name": "_businessAddress",
          "type": "address"
        },
        {
          "name": "_businessName",
          "type": "string"
        }
      ],
      "name": "addBusiness",
      "outputs": [],
      "payable": false,
      "stateMutability": "nonpayable",
      "type": "function"
    },
    {
      "constant": true,
      "inputs": [
        {
          "name": "_businessAddress",
          "type": "address"
        }
      ],
      "name": "getBusinessDetails",
      "outputs": [
        {
          "name": "businessContractAddress",
          "type": "address"
        },
        {
          "name": "businessName",
          "type": "string"
        },
        {
          "name": "businessActive",
          "type": "bool"
        }
      ],
      "payable": false,
      "stateMutability": "view",
      "type": "function"
    },
    {
      "constant": true,
      "inputs": [],
      "name": "getAllBusinesses",
      "outputs": [
        {
          "name": "",
          "type": "address[]"
        }
      ],
      "payable": false,
      "stateMutability": "view",
      "type": "function"
    }
  ],
  "bytecode": "0x608060405234801561001057600080fd5b5033600260006101000a81548173ffffffffffffffffffffffffffffffffffffffff021916908373ffffffffffffffffffffffffffffffffffffffff16021790555061190e806100616000396000f300608060405260043610610062576000357c0100000000000000000000000000000000000000000000000000000000900463ffffffff16806310f516c7146100675780638da5cb5b146100f057806398c4618314610147578063bc9e2b6d146101b3575b600080fd5b34801561007357600080fd5b506100ee600480360381019080803573ffffffffffffffffffffffffffffffffffffffff169060200190929190803590602001908201803590602001908080601f01602080910402602001604051908101604052809392919081815260200183838082843782019150505050505091929192905050506102ad565b005b3480156100fc57600080fd5b506101056106fa565b604051808273ffffffffffffffffffffffffffffffffffffffff1673ffffffffffffffffffffffffffffffffffffffff16815260200191505060405180910390f35b34801561015357600080fd5b5061015c610720565b6040518080602001828103825283818151815260200191508051906020019060200280838360005b8381101561019f578082015181840152602081019050610184565b505050509050019250505060405180910390f35b3480156101bf57600080fd5b506101f4600480360381019080803573ffffffffffffffffffffffffffffffffffffffff1690602001909291905050506107ae565b604051808473ffffffffffffffffffffffffffffffffffffffff1673ffffffffffffffffffffffffffffffffffffffff1681526020018060200183151515158152602001828103825284818151815260200191508051906020019080838360005b83811015610270578082015181840152602081019050610255565b50505050905090810190601f16801561029d5780820380516001836020036101000a031916815260200191505b5094505050505060405180910390f35b600080600260009054906101000a900473ffffffffffffffffffffffffffffffffffffffff1673ffffffffffffffffffffffffffffffffffffffff163373ffffffffffffffffffffffffffffffffffffffff1614151561039b576040517f08c379a00000000000000000000000000000000000000000000000000000000081526004018080602001828103825260278152602001807f4f6e6c792043726564697452656769737465722063616e20616464206275736981526020017f6e65737365732e0000000000000000000000000000000000000000000000000081525060400191505060405180910390fd5b600115156000808673ffffffffffffffffffffffffffffffffffffffff1673ffffffffffffffffffffffffffffffffffffffff16815260200190815260200160002060020160009054906101000a900460ff16151514151515610466576040517f08c379a000000000000000000000000000000000000000000000000000000000815260040180806020018281038252601f8152602001807f427573696e6573732077616c6c657420616c7265616479206578697374732e0081525060200191505060405180910390fd5b61046e61094f565b604051809103906000f08015801561048a573d6000803e3d6000fd5b5091508190506060604051908101604052808273ffffffffffffffffffffffffffffffffffffffff168152602001848152602001600115158152506000808673ffffffffffffffffffffffffffffffffffffffff1673ffffffffffffffffffffffffffffffffffffffff16815260200190815260200160002060008201518160000160006101000a81548173ffffffffffffffffffffffffffffffffffffffff021916908373ffffffffffffffffffffffffffffffffffffffff160217905550602082015181600101908051906020019061056692919061095f565b5060408201518160020160006101000a81548160ff02191690831515021790555090505060018490806001815401808255809150509060018203906000526020600020016000909192909190916101000a81548173ffffffffffffffffffffffffffffffffffffffff021916908373ffffffffffffffffffffffffffffffffffffffff160217905550507fcc045603a24bcdfdf0602c541b79a5d4f731eb252ba73686d4a022590cb9790b848483604051808473ffffffffffffffffffffffffffffffffffffffff1673ffffffffffffffffffffffffffffffffffffffff168152602001806020018373ffffffffffffffffffffffffffffffffffffffff1673ffffffffffffffffffffffffffffffffffffffff168152602001828103825284818151815260200191508051906020019080838360005b838110156106b857808201518184015260208101905061069d565b50505050905090810190601f1680156106e55780820380516001836020036101000a031916815260200191505b5094505050505060405180910390a150505050565b600260009054906101000a900473ffffffffffffffffffffffffffffffffffffffff1681565b606060018054806020026020016040519081016040528092919081815260200182805480156107a457602002820191906000526020600020905b8160009054906101000a900473ffffffffffffffffffffffffffffffffffffffff1673ffffffffffffffffffffffffffffffffffffffff168152602001906001019080831161075a575b5050505050905090565b6000606060008060008573ffffffffffffffffffffffffffffffffffffffff1673ffffffffffffffffffffffffffffffffffffffff16815260200190815260200160002060000160009054906101000a900473ffffffffffffffffffffffffffffffffffffffff166000808673ffffffffffffffffffffffffffffffffffffffff1673ffffffffffffffffffffffffffffffffffffffff1681526020019081526020016000206001016000808773ffffffffffffffffffffffffffffffffffffffff1673ffffffffffffffffffffffffffffffffffffffff16815260200190815260200160002060020160009054906101000a900460ff16818054600181600116156101000203166002900480601f01602080910402602001604051908101604052809291908181526020018280546001816001161561010002031660029004801561093b5780601f106109105761010080835404028352916020019161093b565b820191906000526020600020905b81548152906001019060200180831161091e57829003601f168201915b505050505091509250925092509193909250565b604051610ede80610a0583390190565b828054600181600116156101000203166002900490600052602060002090601f016020900481019282601f106109a057805160ff19168380011785556109ce565b828001600101855582156109ce579182015b828111156109cd5782518255916020019190600101906109b2565b5b5090506109db91906109df565b5090565b610a0191905b808211156109fd5760008160009055506001016109e5565b5090565b90560060806040526000600360006101000a81548160ff02191690831515021790555034801561002b57600080fd5b5033600160006101000a81548173ffffffffffffffffffffffffffffffffffffffff021916908373ffffffffffffffffffffffffffffffffffffffff160217905550610e628061007c6000396000f300608060405260043610610083576000357c0100000000000000000000000000000000000000000000000000000000900463ffffffff16806302d05d3f146100885780634f492166146100df5780635951a7f6146101885780637da67ba8146102185780638d747a3d146102845780638da5cb5b1461030d578063adb4d99014610364575b600080fd5b34801561009457600080fd5b5061009d610393565b604051808273ffffffffffffffffffffffffffffffffffffffff1673ffffffffffffffffffffffffffffffffffffffff16815260200191505060405180910390f35b3480156100eb57600080fd5b50610186600480360381019080803573ffffffffffffffffffffffffffffffffffffffff169060200190929190803590602001908201803590602001908080601f0160208091040260200160405190810160405280939291908181526020018383808284378201915050505050509192919290803573ffffffffffffffffffffffffffffffffffffffff1690602001909291905050506103b9565b005b34801561019457600080fd5b5061019d61099f565b6040518080602001828103825283818151815260200191508051906020019080838360005b838110156101dd5780820151818401526020810190506101c2565b50505050905090810190601f16801561020a5780820380516001836020036101000a031916815260200191505b509250505060405180910390f35b34801561022457600080fd5b5061022d610a3d565b6040518080602001828103825283818151815260200191508051906020019060200280838360005b83811015610270578082015181840152602081019050610255565b505050509050019250505060405180910390f35b34801561029057600080fd5b5061030b600480360381019080803573ffffffffffffffffffffffffffffffffffffffff169060200190929190803590602001908201803590602001908080601f0160208091040260200160405190810160405280939291908181526020018383808284378201915050505050509192919290505050610acb565b005b34801561031957600080fd5b50610322610cd9565b604051808273ffffffffffffffffffffffffffffffffffffffff1673ffffffffffffffffffffffffffffffffffffffff16815260200191505060405180910390f35b34801561037057600080fd5b50610379610cfe565b604051808215151515815260200191505060405180910390f35b600160009054906101000a900473ffffffffffffffffffffffffffffffffffffffff1681565b60003373ffffffffffffffffffffffffffffffffffffffff166000809054906101000a900473ffffffffffffffffffffffffffffffffffffffff1673ffffffffffffffffffffffffffffffffffffffff161415156104a5576040517f08c379a00000000000000000000000000000000000000000000000000000000081526004018080602001828103825260298152602001807f4f6e6c792074686520627573696e657373206f776e65722063616e206164642081526020017f637573746f6d657273000000000000000000000000000000000000000000000081525060400191505060405180910390fd5b60011515600560008673ffffffffffffffffffffffffffffffffffffffff1673ffffffffffffffffffffffffffffffffffffffff16815260200190815260200160002060010160049054906101000a900460ff16151514151515610597576040517f08c379a000000000000000000000000000000000000000000000000000000000815260040180806020018281038252603a8152602001807f5468697320637573746f6d657220697320616c7265616479206163746976652e81526020017f20506c656173652075736520616d656e642066756e6374696f6e00000000000081525060400191505060405180910390fd5b6000600560008673ffffffffffffffffffffffffffffffffffffffff1673ffffffffffffffffffffffffffffffffffffffff16815260200190815260200160002060010160009054906101000a900460030b60030b1415156106ad576040517f08c379a000000000000000000000000000000000000000000000000000000000815260040180806020018281038252604f8152602001807f5468697320637573746f6d657220697320696e6163746976652062757420686181526020017f732061206e6f6e2d7a65726f2062616c616e63652e20506c656173652075736581526020017f20616d656e642066756e6374696f6e000000000000000000000000000000000081525060600191505060405180910390fd5b8190508073ffffffffffffffffffffffffffffffffffffffff1663f6cf948185336040518363ffffffff167c0100000000000000000000000000000000000000000000000000000000028152600401808373ffffffffffffffffffffffffffffffffffffffff1673ffffffffffffffffffffffffffffffffffffffff1681526020018273ffffffffffffffffffffffffffffffffffffffff1673ffffffffffffffffffffffffffffffffffffffff16815260200192505050600060405180830381600087803b15801561077f57600080fd5b505af1158015610793573d6000803e3d6000fd5b50505050606060405190810160405280848152602001600060030b815260200160011515815250600560008673ffffffffffffffffffffffffffffffffffffffff1673ffffffffffffffffffffffffffffffffffffffff1681526020019081526020016000206000820151816000019080519060200190610815929190610d11565b5060208201518160010160006101000a81548163ffffffff021916908360030b63ffffffff16021790555060408201518160010160046101000a81548160ff02191690831515021790555090505060048490806001815401808255809150509060018203906000526020600020016000909192909190916101000a81548173ffffffffffffffffffffffffffffffffffffffff021916908373ffffffffffffffffffffffffffffffffffffffff160217905550507ff85524642119493835c6963e0a0601f69e63225653d1b812b50304f25722937f838560405180806020018373ffffffffffffffffffffffffffffffffffffffff1673ffffffffffffffffffffffffffffffffffffffff168152602001828103825284818151815260200191508051906020019080838360005b8381101561095e578082015181840152602081019050610943565b50505050905090810190601f16801561098b5780820380516001836020036101000a031916815260200191505b50935050505060405180910390a150505050565b60028054600181600116156101000203166002900480601f016020809104026020016040519081016040528092919081815260200182805460018160011615610100020316600290048015610a355780601f10610a0a57610100808354040283529160200191610a35565b820191906000526020600020905b815481529060010190602001808311610a1857829003601f168201915b505050505081565b60606004805480602002602001604051908101604052809291908181526020018280548015610ac157602002820191906000526020600020905b8160009054906101000a900473ffffffffffffffffffffffffffffffffffffffff1673ffffffffffffffffffffffffffffffffffffffff1681526020019060010190808311610a77575b5050505050905090565b60001515600360009054906101000a900460ff161515141515610b7c576040517f08c379a000000000000000000000000000000000000000000000000000000000815260040180806020018281038252602c8152602001807f436f6e74726163742068617320616c7265616479206265656e2061737369676e81526020017f6564206f776e657273686970000000000000000000000000000000000000000081525060400191505060405180910390fd5b816000806101000a81548173ffffffffffffffffffffffffffffffffffffffff021916908373ffffffffffffffffffffffffffffffffffffffff1602179055508060029080519060200190610bd2929190610d91565b506001600360006101000a81548160ff0219169083151502179055508173ffffffffffffffffffffffffffffffffffffffff167f7985ce356670cba2553cefb0e994499f235dd9c1db22475dee06b24ff8196d50823060405180806020018373ffffffffffffffffffffffffffffffffffffffff1673ffffffffffffffffffffffffffffffffffffffff168152602001828103825284818151815260200191508051906020019080838360005b83811015610c9a578082015181840152602081019050610c7f565b50505050905090810190601f168015610cc75780820380516001836020036101000a031916815260200191505b50935050505060405180910390a25050565b6000809054906101000a900473ffffffffffffffffffffffffffffffffffffffff1681565b600360009054906101000a900460ff1681565b828054600181600116156101000203166002900490600052602060002090601f016020900481019282601f10610d5257805160ff1916838001178555610d80565b82800160010185558215610d80579182015b82811115610d7f578251825591602001919060010190610d64565b5b509050610d8d9190610e11565b5090565b828054600181600116156101000203166002900490600052602060002090601f016020900481019282601f10610dd257805160ff1916838001178555610e00565b82800160010185558215610e00579182015b82811115610dff578251825591602001919060010190610de4565b5b509050610e0d9190610e11565b5090565b610e3391905b80821115610e2f576000816000905550600101610e17565b5090565b905600a165627a7a7230582012289ee40676423d17bd57f59d3cfb9973900b4b09a63ca7fe8666db12a2e8010029a165627a7a72305820d485d87db6507103089995361de3deef28ddc09be25ebf1f8dd56cba614301f20029",
  "source": "pragma solidity ^0.4.23;\n\nimport \"./Business.sol\";\n\ncontract Master {\n\n    /*\n        DESCRIPTION:\n        The Master contract will be owned by CreditRegister. This is a contract factory which\n        allows us to deploy new instances of the Business contract when reputable businesses\n        want to be added onto the platform. These businesses will be able to record payment\n        histories, so they will need to be vetted first.\n    */\n    \n    struct BusinessDetails{\n        address businessContractAddress;\n        string businessName;\n        bool businessActive;\n    }\n\n    mapping(address => BusinessDetails) businessAddressToDetails;\n\n    address[] allBusinesses;          //An array of the address of all businesses loaded on the platform. \n                                        // From here you can use the mappings to get their name and contract number\n\n    event businessAdded(address _businessAddress, string _businessName, address _contractAddress);\n\n    address public owner;\n\n    constructor() public{\n        owner = msg.sender;\n    }\n\n\n    function addBusiness(address _businessAddress, string _businessName) public {\n        require(msg.sender == owner, \"Only CreditRegister can add businesses.\");\n        //require(businessExists[_businessName] != true, \"Business name already exists.\");\n        //require(businessAddressExists[_businessAddress] != true, \"Business wallet already exists.\");\n        require(businessAddressToDetails[_businessAddress].businessActive != true, \"Business wallet already exists.\");\n\n        Business newBusiness = new Business();\n        address contractAddress = address(newBusiness);\n        businessAddressToDetails[_businessAddress] = BusinessDetails(contractAddress, _businessName,true);\n        allBusinesses.push(_businessAddress);\n        emit businessAdded(_businessAddress, _businessName, contractAddress);\n    }\n\n\n    function getBusinessDetails(address _businessAddress) public view returns (\n        address businessContractAddress,\n        string businessName,\n        bool businessActive\n    ){\n        return (businessAddressToDetails[_businessAddress].businessContractAddress,\n            businessAddressToDetails[_businessAddress].businessName,\n            businessAddressToDetails[_businessAddress].businessActive);\n    }\n\n\n    function getAllBusinesses() public view returns(address[]){\n        return allBusinesses;\n    }\n}",
  "sourcePath": "/home/bryony/Dropbox/Dissertation/Thesis/Code/contracts/Master.sol",
  "compiler": {
    "name": "solc",
    "version": "0.4.24+commit.e67f0147.Emscripten.clang"
  },
  "schemaVersion": "2.0.1",
  "updatedAt": "2018-12-12T22:15:58.832Z"
}