{
  "contractName": "Master",
  "abi": [
    {
      "constant": true,
      "inputs": [],
      "name": "owner",
      "outputs": [
        {
          "name": "",
          "type": "address"
        }
      ],
      "payable": false,
      "stateMutability": "view",
      "type": "function"
    },
    {
      "constant": true,
      "inputs": [
        {
          "name": "",
          "type": "uint256"
        }
      ],
      "name": "allBusinesses",
      "outputs": [
        {
          "name": "",
          "type": "address"
        }
      ],
      "payable": false,
      "stateMutability": "view",
      "type": "function"
    },
    {
      "inputs": [],
      "payable": false,
      "stateMutability": "nonpayable",
      "type": "constructor"
    },
    {
      "anonymous": false,
      "inputs": [
        {
          "indexed": false,
          "name": "_businessAddress",
          "type": "address"
        },
        {
          "indexed": false,
          "name": "_businessName",
          "type": "string"
        },
        {
          "indexed": false,
          "name": "_contractAddress",
          "type": "address"
        }
      ],
      "name": "businessAdded",
      "type": "event"
    },
    {
      "constant": false,
      "inputs": [
        {
          "name": "_businessAddress",
          "type": "address"
        },
        {
          "name": "_businessName",
          "type": "string"
        }
      ],
      "name": "addBusiness",
      "outputs": [],
      "payable": false,
      "stateMutability": "nonpayable",
      "type": "function"
    },
    {
      "constant": true,
      "inputs": [
        {
          "name": "_businessAddress",
          "type": "address"
        }
      ],
      "name": "checkBusinessAddressExists",
      "outputs": [
        {
          "name": "",
          "type": "bool"
        }
      ],
      "payable": false,
      "stateMutability": "view",
      "type": "function"
    },
    {
      "constant": true,
      "inputs": [
        {
          "name": "_businessAddress",
          "type": "address"
        }
      ],
      "name": "getContractFromAddress",
      "outputs": [
        {
          "name": "",
          "type": "address"
        }
      ],
      "payable": false,
      "stateMutability": "view",
      "type": "function"
    },
    {
      "constant": true,
      "inputs": [
        {
          "name": "_businessAddress",
          "type": "address"
        }
      ],
      "name": "getNameFromAddress",
      "outputs": [
        {
          "name": "",
          "type": "string"
        }
      ],
      "payable": false,
      "stateMutability": "view",
      "type": "function"
    },
    {
      "constant": true,
      "inputs": [],
      "name": "getAllBusinesses",
      "outputs": [
        {
          "name": "",
          "type": "address[]"
        }
      ],
      "payable": false,
      "stateMutability": "view",
      "type": "function"
    }
  ],
  "bytecode": "0x608060405234801561001057600080fd5b5033600460006101000a81548173ffffffffffffffffffffffffffffffffffffffff021916908373ffffffffffffffffffffffffffffffffffffffff16021790555061176a806100616000396000f300608060405260043610610083576000357c0100000000000000000000000000000000000000000000000000000000900463ffffffff16806310f516c714610088578063590f4084146101115780638da5cb5b146101945780638e6fa934146101eb57806398c4618314610246578063aac746ee146102b2578063eedc2d851461036e575b600080fd5b34801561009457600080fd5b5061010f600480360381019080803573ffffffffffffffffffffffffffffffffffffffff169060200190929190803590602001908201803590602001908080601f01602080910402602001604051908101604052809392919081815260200183838082843782019150505050505091929192905050506103db565b005b34801561011d57600080fd5b50610152600480360381019080803573ffffffffffffffffffffffffffffffffffffffff169060200190929190505050610856565b604051808273ffffffffffffffffffffffffffffffffffffffff1673ffffffffffffffffffffffffffffffffffffffff16815260200191505060405180910390f35b3480156101a057600080fd5b506101a96108bf565b604051808273ffffffffffffffffffffffffffffffffffffffff1673ffffffffffffffffffffffffffffffffffffffff16815260200191505060405180910390f35b3480156101f757600080fd5b5061022c600480360381019080803573ffffffffffffffffffffffffffffffffffffffff1690602001909291905050506108e5565b604051808215151515815260200191505060405180910390f35b34801561025257600080fd5b5061025b61093b565b6040518080602001828103825283818151815260200191508051906020019060200280838360005b8381101561029e578082015181840152602081019050610283565b505050509050019250505060405180910390f35b3480156102be57600080fd5b506102f3600480360381019080803573ffffffffffffffffffffffffffffffffffffffff1690602001909291905050506109c9565b6040518080602001828103825283818151815260200191508051906020019080838360005b83811015610333578082015181840152602081019050610318565b50505050905090810190601f1680156103605780820380516001836020036101000a031916815260200191505b509250505060405180910390f35b34801561037a57600080fd5b5061039960048036038101908080359060200190929190505050610aaa565b604051808273ffffffffffffffffffffffffffffffffffffffff1673ffffffffffffffffffffffffffffffffffffffff16815260200191505060405180910390f35b600080600460009054906101000a900473ffffffffffffffffffffffffffffffffffffffff1673ffffffffffffffffffffffffffffffffffffffff163373ffffffffffffffffffffffffffffffffffffffff161415156104c9576040517f08c379a00000000000000000000000000000000000000000000000000000000081526004018080602001828103825260278152602001807f4f6e6c792043726564697452656769737465722063616e20616464206275736981526020017f6e65737365732e0000000000000000000000000000000000000000000000000081525060400191505060405180910390fd5b60011515600360008673ffffffffffffffffffffffffffffffffffffffff1673ffffffffffffffffffffffffffffffffffffffff16815260200190815260200160002060009054906101000a900460ff16151514151515610592576040517f08c379a000000000000000000000000000000000000000000000000000000000815260040180806020018281038252601f8152602001807f427573696e6573732077616c6c657420616c7265616479206578697374732e0081525060200191505060405180910390fd5b61059a610ae8565b604051809103906000f0801580156105b6573d6000803e3d6000fd5b50915081600160008673ffffffffffffffffffffffffffffffffffffffff1673ffffffffffffffffffffffffffffffffffffffff16815260200190815260200160002060006101000a81548173ffffffffffffffffffffffffffffffffffffffff021916908373ffffffffffffffffffffffffffffffffffffffff16021790555081905060008490806001815401808255809150509060018203906000526020600020016000909192909190916101000a81548173ffffffffffffffffffffffffffffffffffffffff021916908373ffffffffffffffffffffffffffffffffffffffff160217905550506001600360008673ffffffffffffffffffffffffffffffffffffffff1673ffffffffffffffffffffffffffffffffffffffff16815260200190815260200160002060006101000a81548160ff02191690831515021790555082600260008673ffffffffffffffffffffffffffffffffffffffff1673ffffffffffffffffffffffffffffffffffffffff168152602001908152602001600020908051906020019061074b929190610af8565b507fcc045603a24bcdfdf0602c541b79a5d4f731eb252ba73686d4a022590cb9790b848483604051808473ffffffffffffffffffffffffffffffffffffffff1673ffffffffffffffffffffffffffffffffffffffff168152602001806020018373ffffffffffffffffffffffffffffffffffffffff1673ffffffffffffffffffffffffffffffffffffffff168152602001828103825284818151815260200191508051906020019080838360005b838110156108145780820151818401526020810190506107f9565b50505050905090810190601f1680156108415780820380516001836020036101000a031916815260200191505b5094505050505060405180910390a150505050565b6000600160008373ffffffffffffffffffffffffffffffffffffffff1673ffffffffffffffffffffffffffffffffffffffff16815260200190815260200160002060009054906101000a900473ffffffffffffffffffffffffffffffffffffffff169050919050565b600460009054906101000a900473ffffffffffffffffffffffffffffffffffffffff1681565b6000600360008373ffffffffffffffffffffffffffffffffffffffff1673ffffffffffffffffffffffffffffffffffffffff16815260200190815260200160002060009054906101000a900460ff169050919050565b606060008054806020026020016040519081016040528092919081815260200182805480156109bf57602002820191906000526020600020905b8160009054906101000a900473ffffffffffffffffffffffffffffffffffffffff1673ffffffffffffffffffffffffffffffffffffffff1681526020019060010190808311610975575b5050505050905090565b6060600260008373ffffffffffffffffffffffffffffffffffffffff1673ffffffffffffffffffffffffffffffffffffffff1681526020019081526020016000208054600181600116156101000203166002900480601f016020809104026020016040519081016040528092919081815260200182805460018160011615610100020316600290048015610a9e5780601f10610a7357610100808354040283529160200191610a9e565b820191906000526020600020905b815481529060010190602001808311610a8157829003601f168201915b50505050509050919050565b600081815481101515610ab957fe5b906000526020600020016000915054906101000a900473ffffffffffffffffffffffffffffffffffffffff1681565b604051610ba180610b9e83390190565b828054600181600116156101000203166002900490600052602060002090601f016020900481019282601f10610b3957805160ff1916838001178555610b67565b82800160010185558215610b67579182015b82811115610b66578251825591602001919060010190610b4b565b5b509050610b749190610b78565b5090565b610b9a91905b80821115610b96576000816000905550600101610b7e565b5090565b90560060806040526000600360006101000a81548160ff02191690831515021790555034801561002b57600080fd5b5033600160006101000a81548173ffffffffffffffffffffffffffffffffffffffff021916908373ffffffffffffffffffffffffffffffffffffffff160217905550610b258061007c6000396000f300608060405260043610610078576000357c0100000000000000000000000000000000000000000000000000000000900463ffffffff16806302d05d3f1461007d57806356b44154146100d45780635951a7f61461018a5780638d747a3d1461021a5780638da5cb5b146102a3578063adb4d990146102fa575b600080fd5b34801561008957600080fd5b50610092610329565b604051808273ffffffffffffffffffffffffffffffffffffffff1673ffffffffffffffffffffffffffffffffffffffff16815260200191505060405180910390f35b3480156100e057600080fd5b50610188600480360381019080803573ffffffffffffffffffffffffffffffffffffffff169060200190929190803590602001908201803590602001908080601f0160208091040260200160405190810160405280939291908181526020018383808284378201915050505050509192919290803573ffffffffffffffffffffffffffffffffffffffff169060200190929190803560030b906020019092919050505061034f565b005b34801561019657600080fd5b5061019f610770565b6040518080602001828103825283818151815260200191508051906020019080838360005b838110156101df5780820151818401526020810190506101c4565b50505050905090810190601f16801561020c5780820380516001836020036101000a031916815260200191505b509250505060405180910390f35b34801561022657600080fd5b506102a1600480360381019080803573ffffffffffffffffffffffffffffffffffffffff169060200190929190803590602001908201803590602001908080601f016020809104026020016040519081016040528093929190818152602001838380828437820191505050505050919291929050505061080e565b005b3480156102af57600080fd5b506102b8610a1c565b604051808273ffffffffffffffffffffffffffffffffffffffff1673ffffffffffffffffffffffffffffffffffffffff16815260200191505060405180910390f35b34801561030657600080fd5b5061030f610a41565b604051808215151515815260200191505060405180910390f35b600160009054906101000a900473ffffffffffffffffffffffffffffffffffffffff1681565b60008060009054906101000a900473ffffffffffffffffffffffffffffffffffffffff1673ffffffffffffffffffffffffffffffffffffffff163373ffffffffffffffffffffffffffffffffffffffff1614151561043b576040517f08c379a000000000000000000000000000000000000000000000000000000000815260040180806020018281038252602e8152602001807f4f6e6c792074686520627573696e657373206f776e65722063616e2063616c6c81526020017f20746869732066756e6374696f6e00000000000000000000000000000000000081525060400191505060405180910390fd5b60011515600660008773ffffffffffffffffffffffffffffffffffffffff1673ffffffffffffffffffffffffffffffffffffffff16815260200190815260200160002060009054906101000a900460ff1615151415151561052a576040517f08c379a000000000000000000000000000000000000000000000000000000000815260040180806020018281038252603a8152602001807f5468697320637573746f6d657220697320616c7265616479206163746976652e81526020017f20506c656173652075736520616d656e642066756e6374696f6e00000000000081525060400191505060405180910390fd5b8290508073ffffffffffffffffffffffffffffffffffffffff1663e664e3f9866040518263ffffffff167c0100000000000000000000000000000000000000000000000000000000028152600401808273ffffffffffffffffffffffffffffffffffffffff1673ffffffffffffffffffffffffffffffffffffffff168152602001915050600060405180830381600087803b1580156105c857600080fd5b505af11580156105dc573d6000803e3d6000fd5b505050506001600660008773ffffffffffffffffffffffffffffffffffffffff1673ffffffffffffffffffffffffffffffffffffffff16815260200190815260200160002060006101000a81548160ff02191690831515021790555081600560008773ffffffffffffffffffffffffffffffffffffffff1673ffffffffffffffffffffffffffffffffffffffff16815260200190815260200160002060006101000a81548163ffffffff021916908360030b63ffffffff1602179055507ff85524642119493835c6963e0a0601f69e63225653d1b812b50304f25722937f848660405180806020018373ffffffffffffffffffffffffffffffffffffffff1673ffffffffffffffffffffffffffffffffffffffff168152602001828103825284818151815260200191508051906020019080838360005b8381101561072e578082015181840152602081019050610713565b50505050905090810190601f16801561075b5780820380516001836020036101000a031916815260200191505b50935050505060405180910390a15050505050565b60028054600181600116156101000203166002900480601f0160208091040260200160405190810160405280929190818152602001828054600181600116156101000203166002900480156108065780601f106107db57610100808354040283529160200191610806565b820191906000526020600020905b8154815290600101906020018083116107e957829003601f168201915b505050505081565b60001515600360009054906101000a900460ff1615151415156108bf576040517f08c379a000000000000000000000000000000000000000000000000000000000815260040180806020018281038252602c8152602001807f436f6e74726163742068617320616c7265616479206265656e2061737369676e81526020017f6564206f776e657273686970000000000000000000000000000000000000000081525060400191505060405180910390fd5b816000806101000a81548173ffffffffffffffffffffffffffffffffffffffff021916908373ffffffffffffffffffffffffffffffffffffffff1602179055508060029080519060200190610915929190610a54565b506001600360006101000a81548160ff0219169083151502179055508173ffffffffffffffffffffffffffffffffffffffff167f7985ce356670cba2553cefb0e994499f235dd9c1db22475dee06b24ff8196d50823060405180806020018373ffffffffffffffffffffffffffffffffffffffff1673ffffffffffffffffffffffffffffffffffffffff168152602001828103825284818151815260200191508051906020019080838360005b838110156109dd5780820151818401526020810190506109c2565b50505050905090810190601f168015610a0a5780820380516001836020036101000a031916815260200191505b50935050505060405180910390a25050565b6000809054906101000a900473ffffffffffffffffffffffffffffffffffffffff1681565b600360009054906101000a900460ff1681565b828054600181600116156101000203166002900490600052602060002090601f016020900481019282601f10610a9557805160ff1916838001178555610ac3565b82800160010185558215610ac3579182015b82811115610ac2578251825591602001919060010190610aa7565b5b509050610ad09190610ad4565b5090565b610af691905b80821115610af2576000816000905550600101610ada565b5090565b905600a165627a7a72305820f3251a73c490791e5b5c9d709087a52be50aa87ed3efded3256f96b55a578c060029a165627a7a72305820ce506d6c324d751143d4adbdeaf8b265a303381b3874e87668f304d42f9175eb0029",
  "source": "pragma solidity ^0.4.23;\n\nimport \"./Business.sol\";\n\ncontract Master {\n\n    /*\n        DESCRIPTION:\n        The Master contract will be owned by CreditRegister. This is a contract factory which\n        allows us to deploy new instances of the Business contract when reputable businesses\n        want to be added onto the platform. These businesses will be able to record payment\n        histories, so they will need to be vetted first.\n    */\n    \n    address[] public allBusinesses;          //An array of the address of all businesses loaded on the platform. From here you can use the mappings to get their name and contract number\n\n    mapping(address => address) businessAddressToContract;      //Maps the business wallet to the deployed contract\n    mapping(address => string) businessAddressToName;          //Maps the business address (unique) to its name                    \n    mapping(address => bool) businessAddressExists;         //Maps the business address to boolean, allowing user to check if business exists\n\n    event businessAdded(address _businessAddress, string _businessName, address _contractAddress);\n\n    address public owner;\n    //address masterContractAddress = address(this);\n\n    constructor() public{\n        owner = msg.sender;\n    }\n\n    function addBusiness(address _businessAddress, string _businessName) public {\n        require(msg.sender == owner, \"Only CreditRegister can add businesses.\");\n        //require(businessExists[_businessName] != true, \"Business name already exists.\");\n        require(businessAddressExists[_businessAddress] != true, \"Business wallet already exists.\");\n\n        Business newBusiness = new Business();\n        businessAddressToContract[_businessAddress] = newBusiness;\n        address contractAddress = address(newBusiness);\n        //businessAddressToContract[_businessAddress] = new Business();\n        \n        allBusinesses.push(_businessAddress);\n        //businessExists[_businessName] = true;\n        businessAddressExists[_businessAddress] = true;\n        businessAddressToName[_businessAddress] = _businessName;\n        emit businessAdded(_businessAddress, _businessName, contractAddress);\n    }\n\n  \n    function checkBusinessAddressExists(address _businessAddress) public view returns(bool){\n        return businessAddressExists[_businessAddress];\n    }\n\n\n    function getContractFromAddress(address _businessAddress) public view returns(address){\n        return businessAddressToContract[_businessAddress];\n    }\n\n\n    function getNameFromAddress(address _businessAddress) public view returns(string){\n        return businessAddressToName[_businessAddress];\n    }\n\n    function getAllBusinesses() public view returns(address[]){\n        return allBusinesses;\n    }\n\n  /* \n    function checkBusinessNameExists(string _businessName) public view returns(bool){\n        return businessExists[_businessName];\n    } \n\n    function checkCustomerAddressExists(address _customerAddress) public view returns(bool){\n        if (_customerAddress == 0xe561E15C3e569B61f3Ffb337dFaAe711eA649160) {\n            return true;\n        } else {\n            return customerAddressExists[_customerAddress];\n        }\n    }\n    \n    function getAllBusinesses(uint index) public view returns(address){\n        return allBusinesses[index];\n    }\n\n    function checkContractAddress(address _businessAddress) public view returns(address){\n        return businessAddressToContract[_businessAddress];\n    }  */ \n}",
  "sourcePath": "/home/bryony/Dropbox/Dissertation/Thesis/Code/contracts/Master.sol",
  "compiler": {
    "name": "solc",
    "version": "0.4.24+commit.e67f0147.Emscripten.clang"
  },
  "schemaVersion": "2.0.1",
  "updatedAt": "2018-12-10T16:39:58.460Z"
}